:100000000C943E000C9453000C94F1000C9453009B
:100010000C9453000C9453000C9453000C94530014
:100020000C9453000C9453000C9453000C94530004
:100030000C9453000C9453000C9453000C945300F4
:100040000C9453000C9453000C9453000C945300E4
:100050000C940C010C941B010C9453000C94530051
:100060000C9453000C9453000C9453000C945300C4
:100070000C9453000C9453000C94530011241FBE95
:10008000CFEFCDBFDFE3DEBF10E2A0E0B0E2E2EFF2
:10009000F4E002C005900D92A430B107D9F70E9498
:1000A0005A010C9477020C940000239A2B98E3E3F6
:1000B000F4E08081877F808380818F778083808157
:1000C000887F8083229A2A98E2E3F4E08081877F08
:1000D000808380818F7780838081887F808301986F
:1000E0000998E1E1F4E080818860808380818F77E6
:1000F00080838081887F8083049A0C98E4E1F4E017
:100100008081877F808380818F7780838081887FD3
:100110008083039A0B98E3E1F4E08081877F8083FA
:1001200080818F7780838081887F808306980E9876
:10013000E6E1F4E08081877F808380818F77808310
:100140008081887F8083059A0D98E5E1F4E08081C5
:10015000877F808380818F7780838081887F808381
:10016000079A0F98E7E1F4E08081877F80838081A0
:100170008F7780838081887F8083E0E0F2E0108247
:10018000138211821282089580E0089580E008951C
:10019000FC0164BF4083089547E068ED81E690E08C
:1001A0000E94C80080E00895E0E1F4E0808188606A
:1001B0008193E83184E0F807C9F7E0E3F4E0808157
:1001C00088608193E83384E0F807C9F7089580E0F8
:1001D000089541E068ED80E890E00E94C80080E06A
:1001E00008951F920F920FB60F9211248F9381E002
:1001F00080938A008F910F900FBE0F901F901895DB
:10020000E0E0F6E080E5828386E086838AE085830D
:1002100085E0808380E008951F920F920FB60F92C1
:1002200011248F9381E080930B068F910F900FBE66
:100230000F901F9018951F920F920FB60F921124D6
:100240008F9382E080930B068F910F900FBE0F90DB
:100250001F9018950E94D4000E9455000E94E7004C
:100260000E94E9000E94C6000E94CC000E9400018A
:100270000E94C400089580FF02C00B9A01C00B9831
:1002800081FF02C00D9A01C00D9882FF02C00C9A36
:1002900001C00C9883FF02C00F9A01C00F9884FF21
:1002A00002C02B9A01C02B9885FF02C02A9A08959C
:1002B0002A9808950E942A0111991BC000E0C02FBE
:1002C000D0E00EC00E940402BE010E9490018F5F28
:1002D0000E943B0183EC99E00197F1F700C0000018
:1002E000119BF0CF87E893E10197F1F700C0000080
:1002F000F7CFC0E0D6E011E0188788858111FDCFE7
:100300008889082F06950695802F0E943B0187E873
:1003100093E10197F1F700C000001199EDCFCFCF25
:1003200097FB072E16F4009407D077FD09D00E94A2
:10033000A40107FC05D03EF4909581959F4F089548
:10034000709561957F4F0895AA1BBB1B51E107C0B3
:10035000AA1FBB1FA617B70710F0A61BB70B881F55
:10036000991F5A95A9F780959095BC01CD010895E4
:100370008F929F92AF92BF92CF92DF92EF92FF92B5
:10038000CF93DF93EC01688179818A819B8161152C
:1003900071058105910521F464E279ED8BE597E023
:1003A0002DE133EF41E050E00E94140249015A016F
:1003B0009B01AC01A7EAB1E40E9433026B017C010E
:1003C000ACEEB4EFA50194010E944102DC01CB0127
:1003D0008C0D9D1DAE1DBF1DB7FF03C00197A10968
:1003E000B04888839983AA83BB839F77DF91CF919D
:1003F000FF90EF90DF90CF90BF90AF909F908F9045
:1004000008950E94B801089580E090E20E94B8012A
:100410000895A0E0B0E08093002090930120A09385
:100420000220B09303200895052E97FB1EF400943C
:100430000E942B0257FD07D00E94460207FC03D002
:100440004EF40C942B0250954095309521953F4FDA
:100450004F4F5F4F089590958095709561957F4FB0
:100460008F4F9F4F08950E946802A59F900DB49FE3
:10047000900DA49F800D911D11240895B7FF0C9439
:1004800033020E943302821B930B0895A1E21A2EBD
:10049000AA1BBB1BFD010DC0AA1FBB1FEE1FFF1F28
:1004A000A217B307E407F50720F0A21BB30BE40B78
:1004B000F50B661F771F881F991F1A9469F76095BF
:1004C0007095809590959B01AC01BD01CF01089579
:1004D000A29FB001B39FC001A39F700D811D112485
:1004E000911DB29F700D811D1124911D0895F894E6
:0204F000FFCF3C
:0404F2000100000005
:02000004008278
:090000000000010000C40704081F
:00000001FF
